{
	"contracts/Lottery.sol": {
		"Lottery": {
			"abi": [
				{
					"inputs": [],
					"stateMutability": "nonpayable",
					"type": "constructor"
				},
				{
					"inputs": [],
					"name": "enter",
					"outputs": [],
					"stateMutability": "payable",
					"type": "function"
				},
				{
					"inputs": [],
					"name": "manager",
					"outputs": [
						{
							"internalType": "address",
							"name": "",
							"type": "address"
						}
					],
					"stateMutability": "view",
					"type": "function"
				},
				{
					"inputs": [],
					"name": "pickWinner",
					"outputs": [],
					"stateMutability": "nonpayable",
					"type": "function"
				},
				{
					"inputs": [
						{
							"internalType": "uint256",
							"name": "",
							"type": "uint256"
						}
					],
					"name": "players",
					"outputs": [
						{
							"internalType": "address",
							"name": "",
							"type": "address"
						}
					],
					"stateMutability": "view",
					"type": "function"
				}
			],
			"devdoc": {
				"kind": "dev",
				"methods": {},
				"version": 1
			},
			"evm": {
				"assembly": "    /* \"contracts/Lottery.sol\":66:984  contract Lottery {... */\n  mstore(0x40, 0x80)\n    /* \"contracts/Lottery.sol\":149:200  constructor() {... */\n  callvalue\n  dup1\n  iszero\n  tag_1\n  jumpi\n  revert(0x00, 0x00)\ntag_1:\n  pop\n    /* \"contracts/Lottery.sol\":183:193  msg.sender */\n  caller\n    /* \"contracts/Lottery.sol\":173:180  manager */\n  0x00\n  0x00\n    /* \"contracts/Lottery.sol\":173:193  manager = msg.sender */\n  0x0100\n  exp\n  dup2\n  sload\n  dup2\n  0xffffffffffffffffffffffffffffffffffffffff\n  mul\n  not\n  and\n  swap1\n  dup4\n  0xffffffffffffffffffffffffffffffffffffffff\n  and\n  mul\n  or\n  swap1\n  sstore\n  pop\n    /* \"contracts/Lottery.sol\":66:984  contract Lottery {... */\n  dataSize(sub_0)\n  dup1\n  dataOffset(sub_0)\n  0x00\n  codecopy\n  0x00\n  return\nstop\n\nsub_0: assembly {\n        /* \"contracts/Lottery.sol\":66:984  contract Lottery {... */\n      mstore(0x40, 0x80)\n      jumpi(tag_1, lt(calldatasize, 0x04))\n      shr(0xe0, calldataload(0x00))\n      dup1\n      0x481c6a75\n      eq\n      tag_2\n      jumpi\n      dup1\n      0x5d495aea\n      eq\n      tag_3\n      jumpi\n      dup1\n      0xe97dcb62\n      eq\n      tag_4\n      jumpi\n      dup1\n      0xf71d96cb\n      eq\n      tag_5\n      jumpi\n    tag_1:\n      revert(0x00, 0x00)\n        /* \"contracts/Lottery.sol\":89:111  address public manager */\n    tag_2:\n      callvalue\n      dup1\n      iszero\n      tag_6\n      jumpi\n      revert(0x00, 0x00)\n    tag_6:\n      pop\n      tag_7\n      tag_8\n      jump\t// in\n    tag_7:\n      mload(0x40)\n      tag_9\n      swap2\n      swap1\n      tag_10\n      jump\t// in\n    tag_9:\n      mload(0x40)\n      dup1\n      swap2\n      sub\n      swap1\n      return\n        /* \"contracts/Lottery.sol\":479:868  function pickWinner() public restricted {... */\n    tag_3:\n      callvalue\n      dup1\n      iszero\n      tag_11\n      jumpi\n      revert(0x00, 0x00)\n    tag_11:\n      pop\n      tag_12\n      tag_13\n      jump\t// in\n    tag_12:\n      stop\n        /* \"contracts/Lottery.sol\":205:318  function enter() public payable {... */\n    tag_4:\n      tag_14\n      tag_15\n      jump\t// in\n    tag_14:\n      stop\n        /* \"contracts/Lottery.sol\":117:142  address [] public players */\n    tag_5:\n      callvalue\n      dup1\n      iszero\n      tag_16\n      jumpi\n      revert(0x00, 0x00)\n    tag_16:\n      pop\n      tag_17\n      0x04\n      dup1\n      calldatasize\n      sub\n      dup2\n      add\n      swap1\n      tag_18\n      swap2\n      swap1\n      tag_19\n      jump\t// in\n    tag_18:\n      tag_20\n      jump\t// in\n    tag_17:\n      mload(0x40)\n      tag_21\n      swap2\n      swap1\n      tag_10\n      jump\t// in\n    tag_21:\n      mload(0x40)\n      dup1\n      swap2\n      sub\n      swap1\n      return\n        /* \"contracts/Lottery.sol\":89:111  address public manager */\n    tag_8:\n      0x00\n      0x00\n      swap1\n      sload\n      swap1\n      0x0100\n      exp\n      swap1\n      div\n      0xffffffffffffffffffffffffffffffffffffffff\n      and\n      dup2\n      jump\t// out\n        /* \"contracts/Lottery.sol\":479:868  function pickWinner() public restricted {... */\n    tag_13:\n        /* \"contracts/Lottery.sol\":927:934  manager */\n      0x00\n      0x00\n      swap1\n      sload\n      swap1\n      0x0100\n      exp\n      swap1\n      div\n      0xffffffffffffffffffffffffffffffffffffffff\n      and\n        /* \"contracts/Lottery.sol\":913:934  msg.sender == manager */\n      0xffffffffffffffffffffffffffffffffffffffff\n      and\n        /* \"contracts/Lottery.sol\":913:923  msg.sender */\n      caller\n        /* \"contracts/Lottery.sol\":913:934  msg.sender == manager */\n      0xffffffffffffffffffffffffffffffffffffffff\n      and\n      eq\n        /* \"contracts/Lottery.sol\":905:964  require(msg.sender == manager,\"Only manager can call this\") */\n      tag_23\n      jumpi\n      mload(0x40)\n      0x08c379a000000000000000000000000000000000000000000000000000000000\n      dup2\n      mstore\n      0x04\n      add\n      tag_24\n      swap1\n      tag_25\n      jump\t// in\n    tag_24:\n      mload(0x40)\n      dup1\n      swap2\n      sub\n      swap1\n      revert\n    tag_23:\n        /* \"contracts/Lottery.sol\":553:554  0 */\n      0x00\n        /* \"contracts/Lottery.sol\":537:544  players */\n      0x01\n        /* \"contracts/Lottery.sol\":537:551  players.length */\n      dup1\n      sload\n      swap1\n      pop\n        /* \"contracts/Lottery.sol\":537:554  players.length >0 */\n      gt\n        /* \"contracts/Lottery.sol\":529:584  require(players.length >0 ,\"No players in the lottery\") */\n      tag_27\n      jumpi\n      mload(0x40)\n      0x08c379a000000000000000000000000000000000000000000000000000000000\n      dup2\n      mstore\n      0x04\n      add\n      tag_28\n      swap1\n      tag_29\n      jump\t// in\n    tag_28:\n      mload(0x40)\n      dup1\n      swap2\n      sub\n      swap1\n      revert\n    tag_27:\n        /* \"contracts/Lottery.sol\":594:604  uint index */\n      0x00\n        /* \"contracts/Lottery.sol\":618:625  players */\n      0x01\n        /* \"contracts/Lottery.sol\":618:632  players.length */\n      dup1\n      sload\n      swap1\n      pop\n        /* \"contracts/Lottery.sol\":607:615  random() */\n      tag_30\n        /* \"contracts/Lottery.sol\":607:613  random */\n      tag_31\n        /* \"contracts/Lottery.sol\":607:615  random() */\n      jump\t// in\n    tag_30:\n        /* \"contracts/Lottery.sol\":607:632  random() % players.length */\n      tag_32\n      swap2\n      swap1\n      tag_33\n      jump\t// in\n    tag_32:\n        /* \"contracts/Lottery.sol\":594:632  uint index = random() % players.length */\n      swap1\n      pop\n        /* \"contracts/Lottery.sol\":642:656  address winner */\n      0x00\n        /* \"contracts/Lottery.sol\":659:666  players */\n      0x01\n        /* \"contracts/Lottery.sol\":667:672  index */\n      dup3\n        /* \"contracts/Lottery.sol\":659:673  players[index] */\n      dup2\n      sload\n      dup2\n      lt\n      tag_34\n      jumpi\n      tag_35\n      tag_36\n      jump\t// in\n    tag_35:\n    tag_34:\n      swap1\n      0x00\n      mstore\n      keccak256(0x00, 0x20)\n      add\n      0x00\n      swap1\n      sload\n      swap1\n      0x0100\n      exp\n      swap1\n      div\n      0xffffffffffffffffffffffffffffffffffffffff\n      and\n        /* \"contracts/Lottery.sol\":642:673  address winner = players[index] */\n      swap1\n      pop\n        /* \"contracts/Lottery.sol\":683:693  uint prize */\n      0x00\n        /* \"contracts/Lottery.sol\":696:717  address(this).balance */\n      selfbalance\n        /* \"contracts/Lottery.sol\":683:717  uint prize = address(this).balance */\n      swap1\n      pop\n        /* \"contracts/Lottery.sol\":728:739  bool succes */\n      0x00\n        /* \"contracts/Lottery.sol\":751:757  winner */\n      dup3\n        /* \"contracts/Lottery.sol\":743:763  payable(winner).call */\n      0xffffffffffffffffffffffffffffffffffffffff\n      and\n        /* \"contracts/Lottery.sol\":771:776  prize */\n      dup3\n        /* \"contracts/Lottery.sol\":743:781  payable(winner).call{value: prize}(\"\") */\n      mload(0x40)\n      tag_38\n      swap1\n      tag_39\n      jump\t// in\n    tag_38:\n      0x00\n      mload(0x40)\n      dup1\n      dup4\n      sub\n      dup2\n      dup6\n      dup8\n      gas\n      call\n      swap3\n      pop\n      pop\n      pop\n      returndatasize\n      dup1\n      0x00\n      dup2\n      eq\n      tag_42\n      jumpi\n      mload(0x40)\n      swap2\n      pop\n      and(add(returndatasize, 0x3f), not(0x1f))\n      dup3\n      add\n      0x40\n      mstore\n      returndatasize\n      dup3\n      mstore\n      returndatasize\n      0x00\n      0x20\n      dup5\n      add\n      returndatacopy\n      jump(tag_41)\n    tag_42:\n      0x60\n      swap2\n      pop\n    tag_41:\n      pop\n        /* \"contracts/Lottery.sol\":727:781  (bool succes, )=payable(winner).call{value: prize}(\"\") */\n      pop\n      swap1\n      pop\n        /* \"contracts/Lottery.sol\":799:805  succes */\n      dup1\n        /* \"contracts/Lottery.sol\":791:825  require(succes, \"Transfer failed\") */\n      tag_43\n      jumpi\n      mload(0x40)\n      0x08c379a000000000000000000000000000000000000000000000000000000000\n      dup2\n      mstore\n      0x04\n      add\n      tag_44\n      swap1\n      tag_45\n      jump\t// in\n    tag_44:\n      mload(0x40)\n      dup1\n      swap2\n      sub\n      swap1\n      revert\n    tag_43:\n        /* \"contracts/Lottery.sol\":859:860  0 */\n      0x00\n        /* \"contracts/Lottery.sol\":845:861  new address[](0) */\n      0xffffffffffffffff\n      dup2\n      gt\n      iszero\n      tag_46\n      jumpi\n      tag_47\n      tag_48\n      jump\t// in\n    tag_47:\n    tag_46:\n      mload(0x40)\n      swap1\n      dup1\n      dup3\n      mstore\n      dup1\n      0x20\n      mul\n      0x20\n      add\n      dup3\n      add\n      0x40\n      mstore\n      dup1\n      iszero\n      tag_49\n      jumpi\n      dup2\n      0x20\n      add\n      0x20\n      dup3\n      mul\n      dup1\n      calldatasize\n      dup4\n      calldatacopy\n      dup1\n      dup3\n      add\n      swap2\n      pop\n      pop\n      swap1\n      pop\n    tag_49:\n      pop\n        /* \"contracts/Lottery.sol\":835:842  players */\n      0x01\n        /* \"contracts/Lottery.sol\":835:861  players = new address[](0) */\n      swap1\n      dup1\n      mload\n      swap1\n      0x20\n      add\n      swap1\n      tag_50\n      swap3\n      swap2\n      swap1\n      tag_51\n      jump\t// in\n    tag_50:\n      pop\n        /* \"contracts/Lottery.sol\":519:868  {... */\n      pop\n      pop\n      pop\n      pop\n        /* \"contracts/Lottery.sol\":479:868  function pickWinner() public restricted {... */\n      jump\t// out\n        /* \"contracts/Lottery.sol\":205:318  function enter() public payable {... */\n    tag_15:\n        /* \"contracts/Lottery.sol\":267:276  .01 ether */\n      0x2386f26fc10000\n        /* \"contracts/Lottery.sol\":255:264  msg.value */\n      callvalue\n        /* \"contracts/Lottery.sol\":255:276  msg.value > .01 ether */\n      gt\n        /* \"contracts/Lottery.sol\":247:277  require(msg.value > .01 ether) */\n      tag_53\n      jumpi\n      revert(0x00, 0x00)\n    tag_53:\n        /* \"contracts/Lottery.sol\":287:294  players */\n      0x01\n        /* \"contracts/Lottery.sol\":300:310  msg.sender */\n      caller\n        /* \"contracts/Lottery.sol\":287:311  players.push(msg.sender) */\n      swap1\n      dup1\n      0x01\n      dup2\n      sload\n      add\n      dup1\n      dup3\n      sstore\n      dup1\n      swap2\n      pop\n      pop\n      0x01\n      swap1\n      sub\n      swap1\n      0x00\n      mstore\n      keccak256(0x00, 0x20)\n      add\n      0x00\n      swap1\n      swap2\n      swap1\n      swap2\n      swap1\n      swap2\n      0x0100\n      exp\n      dup2\n      sload\n      dup2\n      0xffffffffffffffffffffffffffffffffffffffff\n      mul\n      not\n      and\n      swap1\n      dup4\n      0xffffffffffffffffffffffffffffffffffffffff\n      and\n      mul\n      or\n      swap1\n      sstore\n      pop\n        /* \"contracts/Lottery.sol\":205:318  function enter() public payable {... */\n      jump\t// out\n        /* \"contracts/Lottery.sol\":117:142  address [] public players */\n    tag_20:\n      0x01\n      dup2\n      dup2\n      sload\n      dup2\n      lt\n      tag_55\n      jumpi\n      0x00\n      dup1\n      revert\n    tag_55:\n      swap1\n      0x00\n      mstore\n      keccak256(0x00, 0x20)\n      add\n      0x00\n      swap2\n      pop\n      sload\n      swap1\n      0x0100\n      exp\n      swap1\n      div\n      0xffffffffffffffffffffffffffffffffffffffff\n      and\n      dup2\n      jump\t// out\n        /* \"contracts/Lottery.sol\":322:473  function random() private view returns (uint) {... */\n    tag_31:\n        /* \"contracts/Lottery.sol\":362:366  uint */\n      0x00\n        /* \"contracts/Lottery.sol\":413:429  block.prevrandao */\n      prevrandao\n        /* \"contracts/Lottery.sol\":431:446  block.timestamp */\n      timestamp\n        /* \"contracts/Lottery.sol\":448:455  players */\n      0x01\n        /* \"contracts/Lottery.sol\":457:467  msg.sender */\n      caller\n        /* \"contracts/Lottery.sol\":396:468  abi.encodePacked(block.prevrandao, block.timestamp, players, msg.sender) */\n      add(0x20, mload(0x40))\n      tag_58\n      swap5\n      swap4\n      swap3\n      swap2\n      swap1\n      tag_59\n      jump\t// in\n    tag_58:\n      mload(0x40)\n      0x20\n      dup2\n      dup4\n      sub\n      sub\n      dup2\n      mstore\n      swap1\n      0x40\n      mstore\n        /* \"contracts/Lottery.sol\":386:469  keccak256(abi.encodePacked(block.prevrandao, block.timestamp, players, msg.sender)) */\n      dup1\n      mload\n      swap1\n      0x20\n      add\n      keccak256\n        /* \"contracts/Lottery.sol\":381:470  uint(keccak256(abi.encodePacked(block.prevrandao, block.timestamp, players, msg.sender))) */\n      0x00\n      shr\n        /* \"contracts/Lottery.sol\":374:470  return uint(keccak256(abi.encodePacked(block.prevrandao, block.timestamp, players, msg.sender))) */\n      swap1\n      pop\n        /* \"contracts/Lottery.sol\":322:473  function random() private view returns (uint) {... */\n      swap1\n      jump\t// out\n    tag_51:\n      dup3\n      dup1\n      sload\n      dup3\n      dup3\n      sstore\n      swap1\n      0x00\n      mstore\n      keccak256(0x00, 0x20)\n      swap1\n      dup2\n      add\n      swap3\n      dup3\n      iszero\n      tag_60\n      jumpi\n      swap2\n      0x20\n      mul\n      dup3\n      add\n    tag_61:\n      dup3\n      dup2\n      gt\n      iszero\n      tag_62\n      jumpi\n      dup3\n      mload\n      dup3\n      exp(0x0100, 0x00)\n      dup2\n      sload\n      dup2\n      0xffffffffffffffffffffffffffffffffffffffff\n      mul\n      not\n      and\n      swap1\n      dup4\n      0xffffffffffffffffffffffffffffffffffffffff\n      and\n      mul\n      or\n      swap1\n      sstore\n      pop\n      swap2\n      0x20\n      add\n      swap2\n      swap1\n      0x01\n      add\n      swap1\n      jump(tag_61)\n    tag_62:\n    tag_60:\n      pop\n      swap1\n      pop\n      tag_63\n      swap2\n      swap1\n      tag_64\n      jump\t// in\n    tag_63:\n      pop\n      swap1\n      jump\t// out\n    tag_64:\n    tag_65:\n      dup1\n      dup3\n      gt\n      iszero\n      tag_66\n      jumpi\n      0x00\n      dup2\n      0x00\n      swap1\n      sstore\n      pop\n      0x01\n      add\n      jump(tag_65)\n    tag_66:\n      pop\n      swap1\n      jump\t// out\n        /* \"#utility.yul\":7:133   */\n    tag_67:\n        /* \"#utility.yul\":44:51   */\n      0x00\n        /* \"#utility.yul\":84:126   */\n      0xffffffffffffffffffffffffffffffffffffffff\n        /* \"#utility.yul\":77:82   */\n      dup3\n        /* \"#utility.yul\":73:127   */\n      and\n        /* \"#utility.yul\":62:127   */\n      swap1\n      pop\n        /* \"#utility.yul\":7:133   */\n      swap2\n      swap1\n      pop\n      jump\t// out\n        /* \"#utility.yul\":139:235   */\n    tag_68:\n        /* \"#utility.yul\":176:183   */\n      0x00\n        /* \"#utility.yul\":205:229   */\n      tag_107\n        /* \"#utility.yul\":223:228   */\n      dup3\n        /* \"#utility.yul\":205:229   */\n      tag_67\n      jump\t// in\n    tag_107:\n        /* \"#utility.yul\":194:229   */\n      swap1\n      pop\n        /* \"#utility.yul\":139:235   */\n      swap2\n      swap1\n      pop\n      jump\t// out\n        /* \"#utility.yul\":241:359   */\n    tag_69:\n        /* \"#utility.yul\":328:352   */\n      tag_109\n        /* \"#utility.yul\":346:351   */\n      dup2\n        /* \"#utility.yul\":328:352   */\n      tag_68\n      jump\t// in\n    tag_109:\n        /* \"#utility.yul\":323:326   */\n      dup3\n        /* \"#utility.yul\":316:353   */\n      mstore\n        /* \"#utility.yul\":241:359   */\n      pop\n      pop\n      jump\t// out\n        /* \"#utility.yul\":365:587   */\n    tag_10:\n        /* \"#utility.yul\":458:462   */\n      0x00\n        /* \"#utility.yul\":496:498   */\n      0x20\n        /* \"#utility.yul\":485:494   */\n      dup3\n        /* \"#utility.yul\":481:499   */\n      add\n        /* \"#utility.yul\":473:499   */\n      swap1\n      pop\n        /* \"#utility.yul\":509:580   */\n      tag_111\n        /* \"#utility.yul\":577:578   */\n      0x00\n        /* \"#utility.yul\":566:575   */\n      dup4\n        /* \"#utility.yul\":562:579   */\n      add\n        /* \"#utility.yul\":553:559   */\n      dup5\n        /* \"#utility.yul\":509:580   */\n      tag_69\n      jump\t// in\n    tag_111:\n        /* \"#utility.yul\":365:587   */\n      swap3\n      swap2\n      pop\n      pop\n      jump\t// out\n        /* \"#utility.yul\":674:791   */\n    tag_71:\n        /* \"#utility.yul\":783:784   */\n      0x00\n        /* \"#utility.yul\":780:781   */\n      0x00\n        /* \"#utility.yul\":773:785   */\n      revert\n        /* \"#utility.yul\":920:997   */\n    tag_73:\n        /* \"#utility.yul\":957:964   */\n      0x00\n        /* \"#utility.yul\":986:991   */\n      dup2\n        /* \"#utility.yul\":975:991   */\n      swap1\n      pop\n        /* \"#utility.yul\":920:997   */\n      swap2\n      swap1\n      pop\n      jump\t// out\n        /* \"#utility.yul\":1003:1125   */\n    tag_74:\n        /* \"#utility.yul\":1076:1100   */\n      tag_117\n        /* \"#utility.yul\":1094:1099   */\n      dup2\n        /* \"#utility.yul\":1076:1100   */\n      tag_73\n      jump\t// in\n    tag_117:\n        /* \"#utility.yul\":1069:1074   */\n      dup2\n        /* \"#utility.yul\":1066:1101   */\n      eq\n        /* \"#utility.yul\":1056:1119   */\n      tag_118\n      jumpi\n        /* \"#utility.yul\":1115:1116   */\n      0x00\n        /* \"#utility.yul\":1112:1113   */\n      0x00\n        /* \"#utility.yul\":1105:1117   */\n      revert\n        /* \"#utility.yul\":1056:1119   */\n    tag_118:\n        /* \"#utility.yul\":1003:1125   */\n      pop\n      jump\t// out\n        /* \"#utility.yul\":1131:1270   */\n    tag_75:\n        /* \"#utility.yul\":1177:1182   */\n      0x00\n        /* \"#utility.yul\":1215:1221   */\n      dup2\n        /* \"#utility.yul\":1202:1222   */\n      calldataload\n        /* \"#utility.yul\":1193:1222   */\n      swap1\n      pop\n        /* \"#utility.yul\":1231:1264   */\n      tag_120\n        /* \"#utility.yul\":1258:1263   */\n      dup2\n        /* \"#utility.yul\":1231:1264   */\n      tag_74\n      jump\t// in\n    tag_120:\n        /* \"#utility.yul\":1131:1270   */\n      swap3\n      swap2\n      pop\n      pop\n      jump\t// out\n        /* \"#utility.yul\":1276:1605   */\n    tag_19:\n        /* \"#utility.yul\":1335:1341   */\n      0x00\n        /* \"#utility.yul\":1384:1386   */\n      0x20\n        /* \"#utility.yul\":1372:1381   */\n      dup3\n        /* \"#utility.yul\":1363:1370   */\n      dup5\n        /* \"#utility.yul\":1359:1382   */\n      sub\n        /* \"#utility.yul\":1355:1387   */\n      slt\n        /* \"#utility.yul\":1352:1471   */\n      iszero\n      tag_122\n      jumpi\n        /* \"#utility.yul\":1390:1469   */\n      tag_123\n      tag_71\n      jump\t// in\n    tag_123:\n        /* \"#utility.yul\":1352:1471   */\n    tag_122:\n        /* \"#utility.yul\":1510:1511   */\n      0x00\n        /* \"#utility.yul\":1535:1588   */\n      tag_124\n        /* \"#utility.yul\":1580:1587   */\n      dup5\n        /* \"#utility.yul\":1571:1577   */\n      dup3\n        /* \"#utility.yul\":1560:1569   */\n      dup6\n        /* \"#utility.yul\":1556:1578   */\n      add\n        /* \"#utility.yul\":1535:1588   */\n      tag_75\n      jump\t// in\n    tag_124:\n        /* \"#utility.yul\":1525:1588   */\n      swap2\n      pop\n        /* \"#utility.yul\":1481:1598   */\n      pop\n        /* \"#utility.yul\":1276:1605   */\n      swap3\n      swap2\n      pop\n      pop\n      jump\t// out\n        /* \"#utility.yul\":1611:1780   */\n    tag_76:\n        /* \"#utility.yul\":1695:1706   */\n      0x00\n        /* \"#utility.yul\":1729:1735   */\n      dup3\n        /* \"#utility.yul\":1724:1727   */\n      dup3\n        /* \"#utility.yul\":1717:1736   */\n      mstore\n        /* \"#utility.yul\":1769:1773   */\n      0x20\n        /* \"#utility.yul\":1764:1767   */\n      dup3\n        /* \"#utility.yul\":1760:1774   */\n      add\n        /* \"#utility.yul\":1745:1774   */\n      swap1\n      pop\n        /* \"#utility.yul\":1611:1780   */\n      swap3\n      swap2\n      pop\n      pop\n      jump\t// out\n        /* \"#utility.yul\":1786:1962   */\n    tag_77:\n        /* \"#utility.yul\":1926:1954   */\n      0x4f6e6c79206d616e616765722063616e2063616c6c2074686973000000000000\n        /* \"#utility.yul\":1922:1923   */\n      0x00\n        /* \"#utility.yul\":1914:1920   */\n      dup3\n        /* \"#utility.yul\":1910:1924   */\n      add\n        /* \"#utility.yul\":1903:1955   */\n      mstore\n        /* \"#utility.yul\":1786:1962   */\n      pop\n      jump\t// out\n        /* \"#utility.yul\":1968:2334   */\n    tag_78:\n        /* \"#utility.yul\":2110:2113   */\n      0x00\n        /* \"#utility.yul\":2131:2198   */\n      tag_128\n        /* \"#utility.yul\":2195:2197   */\n      0x1a\n        /* \"#utility.yul\":2190:2193   */\n      dup4\n        /* \"#utility.yul\":2131:2198   */\n      tag_76\n      jump\t// in\n    tag_128:\n        /* \"#utility.yul\":2124:2198   */\n      swap2\n      pop\n        /* \"#utility.yul\":2207:2300   */\n      tag_129\n        /* \"#utility.yul\":2296:2299   */\n      dup3\n        /* \"#utility.yul\":2207:2300   */\n      tag_77\n      jump\t// in\n    tag_129:\n        /* \"#utility.yul\":2325:2327   */\n      0x20\n        /* \"#utility.yul\":2320:2323   */\n      dup3\n        /* \"#utility.yul\":2316:2328   */\n      add\n        /* \"#utility.yul\":2309:2328   */\n      swap1\n      pop\n        /* \"#utility.yul\":1968:2334   */\n      swap2\n      swap1\n      pop\n      jump\t// out\n        /* \"#utility.yul\":2340:2759   */\n    tag_25:\n        /* \"#utility.yul\":2506:2510   */\n      0x00\n        /* \"#utility.yul\":2544:2546   */\n      0x20\n        /* \"#utility.yul\":2533:2542   */\n      dup3\n        /* \"#utility.yul\":2529:2547   */\n      add\n        /* \"#utility.yul\":2521:2547   */\n      swap1\n      pop\n        /* \"#utility.yul\":2593:2602   */\n      dup2\n        /* \"#utility.yul\":2587:2591   */\n      dup2\n        /* \"#utility.yul\":2583:2603   */\n      sub\n        /* \"#utility.yul\":2579:2580   */\n      0x00\n        /* \"#utility.yul\":2568:2577   */\n      dup4\n        /* \"#utility.yul\":2564:2581   */\n      add\n        /* \"#utility.yul\":2557:2604   */\n      mstore\n        /* \"#utility.yul\":2621:2752   */\n      tag_131\n        /* \"#utility.yul\":2747:2751   */\n      dup2\n        /* \"#utility.yul\":2621:2752   */\n      tag_78\n      jump\t// in\n    tag_131:\n        /* \"#utility.yul\":2613:2752   */\n      swap1\n      pop\n        /* \"#utility.yul\":2340:2759   */\n      swap2\n      swap1\n      pop\n      jump\t// out\n        /* \"#utility.yul\":2765:2940   */\n    tag_79:\n        /* \"#utility.yul\":2905:2932   */\n      0x4e6f20706c617965727320696e20746865206c6f747465727900000000000000\n        /* \"#utility.yul\":2901:2902   */\n      0x00\n        /* \"#utility.yul\":2893:2899   */\n      dup3\n        /* \"#utility.yul\":2889:2903   */\n      add\n        /* \"#utility.yul\":2882:2933   */\n      mstore\n        /* \"#utility.yul\":2765:2940   */\n      pop\n      jump\t// out\n        /* \"#utility.yul\":2946:3312   */\n    tag_80:\n        /* \"#utility.yul\":3088:3091   */\n      0x00\n        /* \"#utility.yul\":3109:3176   */\n      tag_134\n        /* \"#utility.yul\":3173:3175   */\n      0x19\n        /* \"#utility.yul\":3168:3171   */\n      dup4\n        /* \"#utility.yul\":3109:3176   */\n      tag_76\n      jump\t// in\n    tag_134:\n        /* \"#utility.yul\":3102:3176   */\n      swap2\n      pop\n        /* \"#utility.yul\":3185:3278   */\n      tag_135\n        /* \"#utility.yul\":3274:3277   */\n      dup3\n        /* \"#utility.yul\":3185:3278   */\n      tag_79\n      jump\t// in\n    tag_135:\n        /* \"#utility.yul\":3303:3305   */\n      0x20\n        /* \"#utility.yul\":3298:3301   */\n      dup3\n        /* \"#utility.yul\":3294:3306   */\n      add\n        /* \"#utility.yul\":3287:3306   */\n      swap1\n      pop\n        /* \"#utility.yul\":2946:3312   */\n      swap2\n      swap1\n      pop\n      jump\t// out\n        /* \"#utility.yul\":3318:3737   */\n    tag_29:\n        /* \"#utility.yul\":3484:3488   */\n      0x00\n        /* \"#utility.yul\":3522:3524   */\n      0x20\n        /* \"#utility.yul\":3511:3520   */\n      dup3\n        /* \"#utility.yul\":3507:3525   */\n      add\n        /* \"#utility.yul\":3499:3525   */\n      swap1\n      pop\n        /* \"#utility.yul\":3571:3580   */\n      dup2\n        /* \"#utility.yul\":3565:3569   */\n      dup2\n        /* \"#utility.yul\":3561:3581   */\n      sub\n        /* \"#utility.yul\":3557:3558   */\n      0x00\n        /* \"#utility.yul\":3546:3555   */\n      dup4\n        /* \"#utility.yul\":3542:3559   */\n      add\n        /* \"#utility.yul\":3535:3582   */\n      mstore\n        /* \"#utility.yul\":3599:3730   */\n      tag_137\n        /* \"#utility.yul\":3725:3729   */\n      dup2\n        /* \"#utility.yul\":3599:3730   */\n      tag_80\n      jump\t// in\n    tag_137:\n        /* \"#utility.yul\":3591:3730   */\n      swap1\n      pop\n        /* \"#utility.yul\":3318:3737   */\n      swap2\n      swap1\n      pop\n      jump\t// out\n        /* \"#utility.yul\":3743:3923   */\n    tag_81:\n        /* \"#utility.yul\":3791:3868   */\n      0x4e487b7100000000000000000000000000000000000000000000000000000000\n        /* \"#utility.yul\":3788:3789   */\n      0x00\n        /* \"#utility.yul\":3781:3869   */\n      mstore\n        /* \"#utility.yul\":3888:3892   */\n      0x12\n        /* \"#utility.yul\":3885:3886   */\n      0x04\n        /* \"#utility.yul\":3878:3893   */\n      mstore\n        /* \"#utility.yul\":3912:3916   */\n      0x24\n        /* \"#utility.yul\":3909:3910   */\n      0x00\n        /* \"#utility.yul\":3902:3917   */\n      revert\n        /* \"#utility.yul\":3929:4105   */\n    tag_33:\n        /* \"#utility.yul\":3961:3962   */\n      0x00\n        /* \"#utility.yul\":3978:3998   */\n      tag_140\n        /* \"#utility.yul\":3996:3997   */\n      dup3\n        /* \"#utility.yul\":3978:3998   */\n      tag_73\n      jump\t// in\n    tag_140:\n        /* \"#utility.yul\":3973:3998   */\n      swap2\n      pop\n        /* \"#utility.yul\":4012:4032   */\n      tag_141\n        /* \"#utility.yul\":4030:4031   */\n      dup4\n        /* \"#utility.yul\":4012:4032   */\n      tag_73\n      jump\t// in\n    tag_141:\n        /* \"#utility.yul\":4007:4032   */\n      swap3\n      pop\n        /* \"#utility.yul\":4051:4052   */\n      dup3\n        /* \"#utility.yul\":4041:4076   */\n      tag_142\n      jumpi\n        /* \"#utility.yul\":4056:4074   */\n      tag_143\n      tag_81\n      jump\t// in\n    tag_143:\n        /* \"#utility.yul\":4041:4076   */\n    tag_142:\n        /* \"#utility.yul\":4097:4098   */\n      dup3\n        /* \"#utility.yul\":4094:4095   */\n      dup3\n        /* \"#utility.yul\":4090:4099   */\n      mod\n        /* \"#utility.yul\":4085:4099   */\n      swap1\n      pop\n        /* \"#utility.yul\":3929:4105   */\n      swap3\n      swap2\n      pop\n      pop\n      jump\t// out\n        /* \"#utility.yul\":4111:4291   */\n    tag_36:\n        /* \"#utility.yul\":4159:4236   */\n      0x4e487b7100000000000000000000000000000000000000000000000000000000\n        /* \"#utility.yul\":4156:4157   */\n      0x00\n        /* \"#utility.yul\":4149:4237   */\n      mstore\n        /* \"#utility.yul\":4256:4260   */\n      0x32\n        /* \"#utility.yul\":4253:4254   */\n      0x04\n        /* \"#utility.yul\":4246:4261   */\n      mstore\n        /* \"#utility.yul\":4280:4284   */\n      0x24\n        /* \"#utility.yul\":4277:4278   */\n      0x00\n        /* \"#utility.yul\":4270:4285   */\n      revert\n        /* \"#utility.yul\":4297:4444   */\n    tag_82:\n        /* \"#utility.yul\":4398:4409   */\n      0x00\n        /* \"#utility.yul\":4435:4438   */\n      dup2\n        /* \"#utility.yul\":4420:4438   */\n      swap1\n      pop\n        /* \"#utility.yul\":4297:4444   */\n      swap3\n      swap2\n      pop\n      pop\n      jump\t// out\n        /* \"#utility.yul\":4450:4564   */\n    tag_83:\n      pop\n      jump\t// out\n        /* \"#utility.yul\":4570:4968   */\n    tag_84:\n        /* \"#utility.yul\":4729:4732   */\n      0x00\n        /* \"#utility.yul\":4750:4833   */\n      tag_148\n        /* \"#utility.yul\":4831:4832   */\n      0x00\n        /* \"#utility.yul\":4826:4829   */\n      dup4\n        /* \"#utility.yul\":4750:4833   */\n      tag_82\n      jump\t// in\n    tag_148:\n        /* \"#utility.yul\":4743:4833   */\n      swap2\n      pop\n        /* \"#utility.yul\":4842:4935   */\n      tag_149\n        /* \"#utility.yul\":4931:4934   */\n      dup3\n        /* \"#utility.yul\":4842:4935   */\n      tag_83\n      jump\t// in\n    tag_149:\n        /* \"#utility.yul\":4960:4961   */\n      0x00\n        /* \"#utility.yul\":4955:4958   */\n      dup3\n        /* \"#utility.yul\":4951:4962   */\n      add\n        /* \"#utility.yul\":4944:4962   */\n      swap1\n      pop\n        /* \"#utility.yul\":4570:4968   */\n      swap2\n      swap1\n      pop\n      jump\t// out\n        /* \"#utility.yul\":4974:5353   */\n    tag_39:\n        /* \"#utility.yul\":5158:5161   */\n      0x00\n        /* \"#utility.yul\":5180:5327   */\n      tag_151\n        /* \"#utility.yul\":5323:5326   */\n      dup3\n        /* \"#utility.yul\":5180:5327   */\n      tag_84\n      jump\t// in\n    tag_151:\n        /* \"#utility.yul\":5173:5327   */\n      swap2\n      pop\n        /* \"#utility.yul\":5344:5347   */\n      dup2\n        /* \"#utility.yul\":5337:5347   */\n      swap1\n      pop\n        /* \"#utility.yul\":4974:5353   */\n      swap2\n      swap1\n      pop\n      jump\t// out\n        /* \"#utility.yul\":5359:5524   */\n    tag_85:\n        /* \"#utility.yul\":5499:5516   */\n      0x5472616e73666572206661696c65640000000000000000000000000000000000\n        /* \"#utility.yul\":5495:5496   */\n      0x00\n        /* \"#utility.yul\":5487:5493   */\n      dup3\n        /* \"#utility.yul\":5483:5497   */\n      add\n        /* \"#utility.yul\":5476:5517   */\n      mstore\n        /* \"#utility.yul\":5359:5524   */\n      pop\n      jump\t// out\n        /* \"#utility.yul\":5530:5896   */\n    tag_86:\n        /* \"#utility.yul\":5672:5675   */\n      0x00\n        /* \"#utility.yul\":5693:5760   */\n      tag_154\n        /* \"#utility.yul\":5757:5759   */\n      0x0f\n        /* \"#utility.yul\":5752:5755   */\n      dup4\n        /* \"#utility.yul\":5693:5760   */\n      tag_76\n      jump\t// in\n    tag_154:\n        /* \"#utility.yul\":5686:5760   */\n      swap2\n      pop\n        /* \"#utility.yul\":5769:5862   */\n      tag_155\n        /* \"#utility.yul\":5858:5861   */\n      dup3\n        /* \"#utility.yul\":5769:5862   */\n      tag_85\n      jump\t// in\n    tag_155:\n        /* \"#utility.yul\":5887:5889   */\n      0x20\n        /* \"#utility.yul\":5882:5885   */\n      dup3\n        /* \"#utility.yul\":5878:5890   */\n      add\n        /* \"#utility.yul\":5871:5890   */\n      swap1\n      pop\n        /* \"#utility.yul\":5530:5896   */\n      swap2\n      swap1\n      pop\n      jump\t// out\n        /* \"#utility.yul\":5902:6321   */\n    tag_45:\n        /* \"#utility.yul\":6068:6072   */\n      0x00\n        /* \"#utility.yul\":6106:6108   */\n      0x20\n        /* \"#utility.yul\":6095:6104   */\n      dup3\n        /* \"#utility.yul\":6091:6109   */\n      add\n        /* \"#utility.yul\":6083:6109   */\n      swap1\n      pop\n        /* \"#utility.yul\":6155:6164   */\n      dup2\n        /* \"#utility.yul\":6149:6153   */\n      dup2\n        /* \"#utility.yul\":6145:6165   */\n      sub\n        /* \"#utility.yul\":6141:6142   */\n      0x00\n        /* \"#utility.yul\":6130:6139   */\n      dup4\n        /* \"#utility.yul\":6126:6143   */\n      add\n        /* \"#utility.yul\":6119:6166   */\n      mstore\n        /* \"#utility.yul\":6183:6314   */\n      tag_157\n        /* \"#utility.yul\":6309:6313   */\n      dup2\n        /* \"#utility.yul\":6183:6314   */\n      tag_86\n      jump\t// in\n    tag_157:\n        /* \"#utility.yul\":6175:6314   */\n      swap1\n      pop\n        /* \"#utility.yul\":5902:6321   */\n      swap2\n      swap1\n      pop\n      jump\t// out\n        /* \"#utility.yul\":6327:6507   */\n    tag_48:\n        /* \"#utility.yul\":6375:6452   */\n      0x4e487b7100000000000000000000000000000000000000000000000000000000\n        /* \"#utility.yul\":6372:6373   */\n      0x00\n        /* \"#utility.yul\":6365:6453   */\n      mstore\n        /* \"#utility.yul\":6472:6476   */\n      0x41\n        /* \"#utility.yul\":6469:6470   */\n      0x04\n        /* \"#utility.yul\":6462:6477   */\n      mstore\n        /* \"#utility.yul\":6496:6500   */\n      0x24\n        /* \"#utility.yul\":6493:6494   */\n      0x00\n        /* \"#utility.yul\":6486:6501   */\n      revert\n        /* \"#utility.yul\":6513:6592   */\n    tag_87:\n        /* \"#utility.yul\":6552:6559   */\n      0x00\n        /* \"#utility.yul\":6581:6586   */\n      dup2\n        /* \"#utility.yul\":6570:6586   */\n      swap1\n      pop\n        /* \"#utility.yul\":6513:6592   */\n      swap2\n      swap1\n      pop\n      jump\t// out\n        /* \"#utility.yul\":6598:6755   */\n    tag_88:\n        /* \"#utility.yul\":6703:6748   */\n      tag_161\n        /* \"#utility.yul\":6723:6747   */\n      tag_162\n        /* \"#utility.yul\":6741:6746   */\n      dup3\n        /* \"#utility.yul\":6723:6747   */\n      tag_73\n      jump\t// in\n    tag_162:\n        /* \"#utility.yul\":6703:6748   */\n      tag_87\n      jump\t// in\n    tag_161:\n        /* \"#utility.yul\":6698:6701   */\n      dup3\n        /* \"#utility.yul\":6691:6749   */\n      mstore\n        /* \"#utility.yul\":6598:6755   */\n      pop\n      pop\n      jump\t// out\n        /* \"#utility.yul\":6761:6872   */\n    tag_89:\n        /* \"#utility.yul\":6825:6831   */\n      0x00\n        /* \"#utility.yul\":6859:6864   */\n      dup2\n        /* \"#utility.yul\":6853:6865   */\n      sload\n        /* \"#utility.yul\":6843:6865   */\n      swap1\n      pop\n        /* \"#utility.yul\":6761:6872   */\n      swap2\n      swap1\n      pop\n      jump\t// out\n        /* \"#utility.yul\":6878:7041   */\n    tag_90:\n        /* \"#utility.yul\":6995:7006   */\n      0x00\n        /* \"#utility.yul\":7032:7035   */\n      dup2\n        /* \"#utility.yul\":7017:7035   */\n      swap1\n      pop\n        /* \"#utility.yul\":6878:7041   */\n      swap3\n      swap2\n      pop\n      pop\n      jump\t// out\n        /* \"#utility.yul\":7047:7203   */\n    tag_91:\n        /* \"#utility.yul\":7111:7115   */\n      0x00\n        /* \"#utility.yul\":7134:7137   */\n      dup2\n        /* \"#utility.yul\":7126:7137   */\n      swap1\n      pop\n        /* \"#utility.yul\":7157:7160   */\n      dup2\n        /* \"#utility.yul\":7154:7155   */\n      0x00\n        /* \"#utility.yul\":7147:7161   */\n      mstore\n        /* \"#utility.yul\":7191:7195   */\n      0x20\n        /* \"#utility.yul\":7188:7189   */\n      0x00\n        /* \"#utility.yul\":7178:7196   */\n      keccak256\n        /* \"#utility.yul\":7170:7196   */\n      swap1\n      pop\n        /* \"#utility.yul\":7047:7203   */\n      swap2\n      swap1\n      pop\n      jump\t// out\n        /* \"#utility.yul\":7209:7325   */\n    tag_92:\n        /* \"#utility.yul\":7294:7318   */\n      tag_167\n        /* \"#utility.yul\":7312:7317   */\n      dup2\n        /* \"#utility.yul\":7294:7318   */\n      tag_68\n      jump\t// in\n    tag_167:\n        /* \"#utility.yul\":7289:7292   */\n      dup3\n        /* \"#utility.yul\":7282:7319   */\n      mstore\n        /* \"#utility.yul\":7209:7325   */\n      pop\n      pop\n      jump\t// out\n        /* \"#utility.yul\":7331:7526   */\n    tag_93:\n        /* \"#utility.yul\":7408:7418   */\n      0x00\n        /* \"#utility.yul\":7429:7483   */\n      tag_169\n        /* \"#utility.yul\":7479:7482   */\n      dup4\n        /* \"#utility.yul\":7471:7477   */\n      dup4\n        /* \"#utility.yul\":7429:7483   */\n      tag_92\n      jump\t// in\n    tag_169:\n        /* \"#utility.yul\":7515:7519   */\n      0x20\n        /* \"#utility.yul\":7510:7513   */\n      dup4\n        /* \"#utility.yul\":7506:7520   */\n      add\n        /* \"#utility.yul\":7492:7520   */\n      swap1\n      pop\n        /* \"#utility.yul\":7331:7526   */\n      swap3\n      swap2\n      pop\n      pop\n      jump\t// out\n        /* \"#utility.yul\":7532:7634   */\n    tag_94:\n        /* \"#utility.yul\":7574:7582   */\n      0x00\n        /* \"#utility.yul\":7621:7626   */\n      dup2\n        /* \"#utility.yul\":7618:7619   */\n      0x00\n        /* \"#utility.yul\":7614:7627   */\n      shr\n        /* \"#utility.yul\":7593:7627   */\n      swap1\n      pop\n        /* \"#utility.yul\":7532:7634   */\n      swap2\n      swap1\n      pop\n      jump\t// out\n        /* \"#utility.yul\":7640:7779   */\n    tag_95:\n        /* \"#utility.yul\":7690:7697   */\n      0x00\n        /* \"#utility.yul\":7730:7772   */\n      0xffffffffffffffffffffffffffffffffffffffff\n        /* \"#utility.yul\":7723:7728   */\n      dup3\n        /* \"#utility.yul\":7719:7773   */\n      and\n        /* \"#utility.yul\":7708:7773   */\n      swap1\n      pop\n        /* \"#utility.yul\":7640:7779   */\n      swap2\n      swap1\n      pop\n      jump\t// out\n        /* \"#utility.yul\":7785:7952   */\n    tag_96:\n        /* \"#utility.yul\":7855:7860   */\n      0x00\n        /* \"#utility.yul\":7880:7946   */\n      tag_173\n        /* \"#utility.yul\":7911:7945   */\n      tag_174\n        /* \"#utility.yul\":7934:7944   */\n      dup4\n        /* \"#utility.yul\":7911:7945   */\n      tag_94\n      jump\t// in\n    tag_174:\n        /* \"#utility.yul\":7880:7946   */\n      tag_95\n      jump\t// in\n    tag_173:\n        /* \"#utility.yul\":7871:7946   */\n      swap1\n      pop\n        /* \"#utility.yul\":7785:7952   */\n      swap2\n      swap1\n      pop\n      jump\t// out\n        /* \"#utility.yul\":7958:8103   */\n    tag_97:\n        /* \"#utility.yul\":8013:8018   */\n      0x00\n        /* \"#utility.yul\":8038:8096   */\n      tag_176\n        /* \"#utility.yul\":8090:8094   */\n      dup3\n        /* \"#utility.yul\":8084:8095   */\n      sload\n        /* \"#utility.yul\":8038:8096   */\n      tag_96\n      jump\t// in\n    tag_176:\n        /* \"#utility.yul\":8029:8096   */\n      swap1\n      pop\n        /* \"#utility.yul\":7958:8103   */\n      swap2\n      swap1\n      pop\n      jump\t// out\n        /* \"#utility.yul\":8109:8219   */\n    tag_98:\n        /* \"#utility.yul\":8176:8180   */\n      0x00\n        /* \"#utility.yul\":8208:8212   */\n      0x01\n        /* \"#utility.yul\":8203:8206   */\n      dup3\n        /* \"#utility.yul\":8199:8213   */\n      add\n        /* \"#utility.yul\":8191:8213   */\n      swap1\n      pop\n        /* \"#utility.yul\":8109:8219   */\n      swap2\n      swap1\n      pop\n      jump\t// out\n        /* \"#utility.yul\":8255:9050   */\n    tag_99:\n        /* \"#utility.yul\":8389:8392   */\n      0x00\n        /* \"#utility.yul\":8418:8469   */\n      tag_179\n        /* \"#utility.yul\":8463:8468   */\n      dup3\n        /* \"#utility.yul\":8418:8469   */\n      tag_89\n      jump\t// in\n    tag_179:\n        /* \"#utility.yul\":8485:8589   */\n      tag_180\n        /* \"#utility.yul\":8582:8588   */\n      dup2\n        /* \"#utility.yul\":8577:8580   */\n      dup6\n        /* \"#utility.yul\":8485:8589   */\n      tag_90\n      jump\t// in\n    tag_180:\n        /* \"#utility.yul\":8478:8589   */\n      swap4\n      pop\n        /* \"#utility.yul\":8613:8666   */\n      tag_181\n        /* \"#utility.yul\":8660:8665   */\n      dup4\n        /* \"#utility.yul\":8613:8666   */\n      tag_91\n      jump\t// in\n    tag_181:\n        /* \"#utility.yul\":8689:8696   */\n      dup1\n        /* \"#utility.yul\":8720:8721   */\n      0x00\n        /* \"#utility.yul\":8705:9025   */\n    tag_182:\n        /* \"#utility.yul\":8730:8736   */\n      dup4\n        /* \"#utility.yul\":8727:8728   */\n      dup2\n        /* \"#utility.yul\":8724:8737   */\n      lt\n        /* \"#utility.yul\":8705:9025   */\n      iszero\n      tag_184\n      jumpi\n        /* \"#utility.yul\":8800:8844   */\n      tag_185\n        /* \"#utility.yul\":8837:8843   */\n      dup3\n        /* \"#utility.yul\":8800:8844   */\n      tag_97\n      jump\t// in\n    tag_185:\n        /* \"#utility.yul\":8864:8935   */\n      tag_186\n        /* \"#utility.yul\":8931:8934   */\n      dup9\n        /* \"#utility.yul\":8916:8929   */\n      dup3\n        /* \"#utility.yul\":8864:8935   */\n      tag_93\n      jump\t// in\n    tag_186:\n        /* \"#utility.yul\":8857:8935   */\n      swap8\n      pop\n        /* \"#utility.yul\":8958:9015   */\n      tag_187\n        /* \"#utility.yul\":9008:9014   */\n      dup4\n        /* \"#utility.yul\":8958:9015   */\n      tag_98\n      jump\t// in\n    tag_187:\n        /* \"#utility.yul\":8948:9015   */\n      swap3\n      pop\n        /* \"#utility.yul\":8765:9025   */\n      pop\n        /* \"#utility.yul\":8752:8753   */\n      0x01\n        /* \"#utility.yul\":8749:8750   */\n      dup2\n        /* \"#utility.yul\":8745:8754   */\n      add\n        /* \"#utility.yul\":8740:8754   */\n      swap1\n      pop\n        /* \"#utility.yul\":8705:9025   */\n      jump(tag_182)\n    tag_184:\n        /* \"#utility.yul\":8709:8723   */\n      pop\n        /* \"#utility.yul\":9041:9044   */\n      dup6\n        /* \"#utility.yul\":9034:9044   */\n      swap4\n      pop\n        /* \"#utility.yul\":8394:9050   */\n      pop\n      pop\n      pop\n        /* \"#utility.yul\":8255:9050   */\n      swap3\n      swap2\n      pop\n      pop\n      jump\t// out\n        /* \"#utility.yul\":9056:9150   */\n    tag_100:\n        /* \"#utility.yul\":9089:9097   */\n      0x00\n        /* \"#utility.yul\":9137:9142   */\n      dup2\n        /* \"#utility.yul\":9133:9135   */\n      0x60\n        /* \"#utility.yul\":9129:9143   */\n      shl\n        /* \"#utility.yul\":9108:9143   */\n      swap1\n      pop\n        /* \"#utility.yul\":9056:9150   */\n      swap2\n      swap1\n      pop\n      jump\t// out\n        /* \"#utility.yul\":9156:9250   */\n    tag_101:\n        /* \"#utility.yul\":9195:9202   */\n      0x00\n        /* \"#utility.yul\":9224:9244   */\n      tag_190\n        /* \"#utility.yul\":9238:9243   */\n      dup3\n        /* \"#utility.yul\":9224:9244   */\n      tag_100\n      jump\t// in\n    tag_190:\n        /* \"#utility.yul\":9213:9244   */\n      swap1\n      pop\n        /* \"#utility.yul\":9156:9250   */\n      swap2\n      swap1\n      pop\n      jump\t// out\n        /* \"#utility.yul\":9256:9356   */\n    tag_102:\n        /* \"#utility.yul\":9295:9302   */\n      0x00\n        /* \"#utility.yul\":9324:9350   */\n      tag_192\n        /* \"#utility.yul\":9344:9349   */\n      dup3\n        /* \"#utility.yul\":9324:9350   */\n      tag_101\n      jump\t// in\n    tag_192:\n        /* \"#utility.yul\":9313:9350   */\n      swap1\n      pop\n        /* \"#utility.yul\":9256:9356   */\n      swap2\n      swap1\n      pop\n      jump\t// out\n        /* \"#utility.yul\":9362:9519   */\n    tag_103:\n        /* \"#utility.yul\":9467:9512   */\n      tag_194\n        /* \"#utility.yul\":9487:9511   */\n      tag_195\n        /* \"#utility.yul\":9505:9510   */\n      dup3\n        /* \"#utility.yul\":9487:9511   */\n      tag_68\n      jump\t// in\n    tag_195:\n        /* \"#utility.yul\":9467:9512   */\n      tag_102\n      jump\t// in\n    tag_194:\n        /* \"#utility.yul\":9462:9465   */\n      dup3\n        /* \"#utility.yul\":9455:9513   */\n      mstore\n        /* \"#utility.yul\":9362:9519   */\n      pop\n      pop\n      jump\t// out\n        /* \"#utility.yul\":9525:10277   */\n    tag_59:\n        /* \"#utility.yul\":9768:9771   */\n      0x00\n        /* \"#utility.yul\":9783:9858   */\n      tag_197\n        /* \"#utility.yul\":9854:9857   */\n      dup3\n        /* \"#utility.yul\":9845:9851   */\n      dup8\n        /* \"#utility.yul\":9783:9858   */\n      tag_88\n      jump\t// in\n    tag_197:\n        /* \"#utility.yul\":9883:9885   */\n      0x20\n        /* \"#utility.yul\":9878:9881   */\n      dup3\n        /* \"#utility.yul\":9874:9886   */\n      add\n        /* \"#utility.yul\":9867:9886   */\n      swap2\n      pop\n        /* \"#utility.yul\":9896:9971   */\n      tag_198\n        /* \"#utility.yul\":9967:9970   */\n      dup3\n        /* \"#utility.yul\":9958:9964   */\n      dup7\n        /* \"#utility.yul\":9896:9971   */\n      tag_88\n      jump\t// in\n    tag_198:\n        /* \"#utility.yul\":9996:9998   */\n      0x20\n        /* \"#utility.yul\":9991:9994   */\n      dup3\n        /* \"#utility.yul\":9987:9999   */\n      add\n        /* \"#utility.yul\":9980:9999   */\n      swap2\n      pop\n        /* \"#utility.yul\":10016:10138   */\n      tag_199\n        /* \"#utility.yul\":10134:10137   */\n      dup3\n        /* \"#utility.yul\":10125:10131   */\n      dup6\n        /* \"#utility.yul\":10016:10138   */\n      tag_99\n      jump\t// in\n    tag_199:\n        /* \"#utility.yul\":10009:10138   */\n      swap2\n      pop\n        /* \"#utility.yul\":10148:10223   */\n      tag_200\n        /* \"#utility.yul\":10219:10222   */\n      dup3\n        /* \"#utility.yul\":10210:10216   */\n      dup5\n        /* \"#utility.yul\":10148:10223   */\n      tag_103\n      jump\t// in\n    tag_200:\n        /* \"#utility.yul\":10248:10250   */\n      0x14\n        /* \"#utility.yul\":10243:10246   */\n      dup3\n        /* \"#utility.yul\":10239:10251   */\n      add\n        /* \"#utility.yul\":10232:10251   */\n      swap2\n      pop\n        /* \"#utility.yul\":10268:10271   */\n      dup2\n        /* \"#utility.yul\":10261:10271   */\n      swap1\n      pop\n        /* \"#utility.yul\":9525:10277   */\n      swap6\n      swap5\n      pop\n      pop\n      pop\n      pop\n      pop\n      jump\t// out\n\n    auxdata: 0xa26469706673582212203227079bcf63635e40c79a03f403202bad1bfe1cb924306246c956a45b6a820a64736f6c634300081c0033\n}\n",
				"bytecode": {
					"linkReferences": {},
					"object": "6080604052348015600e575f5ffd5b50335f5f6101000a81548173ffffffffffffffffffffffffffffffffffffffff021916908373ffffffffffffffffffffffffffffffffffffffff1602179055506109a18061005b5f395ff3fe60806040526004361061003e575f3560e01c8063481c6a75146100425780635d495aea1461006c578063e97dcb6214610082578063f71d96cb1461008c575b5f5ffd5b34801561004d575f5ffd5b506100566100c8565b60405161006391906104f2565b60405180910390f35b348015610077575f5ffd5b506100806100ec565b005b61008a61032c565b005b348015610097575f5ffd5b506100b260048036038101906100ad9190610542565b6103a0565b6040516100bf91906104f2565b60405180910390f35b5f5f9054906101000a900473ffffffffffffffffffffffffffffffffffffffff1681565b5f5f9054906101000a900473ffffffffffffffffffffffffffffffffffffffff1673ffffffffffffffffffffffffffffffffffffffff163373ffffffffffffffffffffffffffffffffffffffff161461017a576040517f08c379a0000000000000000000000000000000000000000000000000000000008152600401610171906105c7565b60405180910390fd5b5f600180549050116101c1576040517f08c379a00000000000000000000000000000000000000000000000000000000081526004016101b89061062f565b60405180910390fd5b5f6001805490506101d06103db565b6101da919061067a565b90505f600182815481106101f1576101f06106aa565b5b905f5260205f20015f9054906101000a900473ffffffffffffffffffffffffffffffffffffffff1690505f4790505f8273ffffffffffffffffffffffffffffffffffffffff168260405161024490610704565b5f6040518083038185875af1925050503d805f811461027e576040519150601f19603f3d011682016040523d82523d5f602084013e610283565b606091505b50509050806102c7576040517f08c379a00000000000000000000000000000000000000000000000000000000081526004016102be90610762565b60405180910390fd5b5f67ffffffffffffffff8111156102e1576102e0610780565b5b60405190808252806020026020018201604052801561030f5781602001602082028036833780820191505090505b5060019080519060200190610325929190610411565b5050505050565b662386f26fc10000341161033e575f5ffd5b600133908060018154018082558091505060019003905f5260205f20015f9091909190916101000a81548173ffffffffffffffffffffffffffffffffffffffff021916908373ffffffffffffffffffffffffffffffffffffffff160217905550565b600181815481106103af575f80fd5b905f5260205f20015f915054906101000a900473ffffffffffffffffffffffffffffffffffffffff1681565b5f44426001336040516020016103f49493929190610922565b604051602081830303815290604052805190602001205f1c905090565b828054828255905f5260205f20908101928215610487579160200282015b82811115610486578251825f6101000a81548173ffffffffffffffffffffffffffffffffffffffff021916908373ffffffffffffffffffffffffffffffffffffffff1602179055509160200191906001019061042f565b5b5090506104949190610498565b5090565b5b808211156104af575f815f905550600101610499565b5090565b5f73ffffffffffffffffffffffffffffffffffffffff82169050919050565b5f6104dc826104b3565b9050919050565b6104ec816104d2565b82525050565b5f6020820190506105055f8301846104e3565b92915050565b5f5ffd5b5f819050919050565b6105218161050f565b811461052b575f5ffd5b50565b5f8135905061053c81610518565b92915050565b5f602082840312156105575761055661050b565b5b5f6105648482850161052e565b91505092915050565b5f82825260208201905092915050565b7f4f6e6c79206d616e616765722063616e2063616c6c20746869730000000000005f82015250565b5f6105b1601a8361056d565b91506105bc8261057d565b602082019050919050565b5f6020820190508181035f8301526105de816105a5565b9050919050565b7f4e6f20706c617965727320696e20746865206c6f7474657279000000000000005f82015250565b5f61061960198361056d565b9150610624826105e5565b602082019050919050565b5f6020820190508181035f8301526106468161060d565b9050919050565b7f4e487b71000000000000000000000000000000000000000000000000000000005f52601260045260245ffd5b5f6106848261050f565b915061068f8361050f565b92508261069f5761069e61064d565b5b828206905092915050565b7f4e487b71000000000000000000000000000000000000000000000000000000005f52603260045260245ffd5b5f81905092915050565b50565b5f6106ef5f836106d7565b91506106fa826106e1565b5f82019050919050565b5f61070e826106e4565b9150819050919050565b7f5472616e73666572206661696c656400000000000000000000000000000000005f82015250565b5f61074c600f8361056d565b915061075782610718565b602082019050919050565b5f6020820190508181035f83015261077981610740565b9050919050565b7f4e487b71000000000000000000000000000000000000000000000000000000005f52604160045260245ffd5b5f819050919050565b6107c76107c28261050f565b6107ad565b82525050565b5f81549050919050565b5f81905092915050565b5f819050815f5260205f209050919050565b6107fc816104d2565b82525050565b5f61080d83836107f3565b60208301905092915050565b5f815f1c9050919050565b5f73ffffffffffffffffffffffffffffffffffffffff82169050919050565b5f61085561085083610819565b610824565b9050919050565b5f6108678254610843565b9050919050565b5f600182019050919050565b5f610884826107cd565b61088e81856107d7565b9350610899836107e1565b805f5b838110156108d0576108ad8261085c565b6108b78882610802565b97506108c28361086e565b92505060018101905061089c565b5085935050505092915050565b5f8160601b9050919050565b5f6108f3826108dd565b9050919050565b5f610904826108e9565b9050919050565b61091c610917826104d2565b6108fa565b82525050565b5f61092d82876107b6565b60208201915061093d82866107b6565b60208201915061094d828561087a565b9150610959828461090b565b6014820191508190509594505050505056fea26469706673582212203227079bcf63635e40c79a03f403202bad1bfe1cb924306246c956a45b6a820a64736f6c634300081c0033",
					"opcodes": "PUSH1 0x80 PUSH1 0x40 MSTORE CALLVALUE DUP1 ISZERO PUSH1 0xE JUMPI PUSH0 PUSH0 REVERT JUMPDEST POP CALLER PUSH0 PUSH0 PUSH2 0x100 EXP DUP2 SLOAD DUP2 PUSH20 0xFFFFFFFFFFFFFFFFFFFFFFFFFFFFFFFFFFFFFFFF MUL NOT AND SWAP1 DUP4 PUSH20 0xFFFFFFFFFFFFFFFFFFFFFFFFFFFFFFFFFFFFFFFF AND MUL OR SWAP1 SSTORE POP PUSH2 0x9A1 DUP1 PUSH2 0x5B PUSH0 CODECOPY PUSH0 RETURN INVALID PUSH1 0x80 PUSH1 0x40 MSTORE PUSH1 0x4 CALLDATASIZE LT PUSH2 0x3E JUMPI PUSH0 CALLDATALOAD PUSH1 0xE0 SHR DUP1 PUSH4 0x481C6A75 EQ PUSH2 0x42 JUMPI DUP1 PUSH4 0x5D495AEA EQ PUSH2 0x6C JUMPI DUP1 PUSH4 0xE97DCB62 EQ PUSH2 0x82 JUMPI DUP1 PUSH4 0xF71D96CB EQ PUSH2 0x8C JUMPI JUMPDEST PUSH0 PUSH0 REVERT JUMPDEST CALLVALUE DUP1 ISZERO PUSH2 0x4D JUMPI PUSH0 PUSH0 REVERT JUMPDEST POP PUSH2 0x56 PUSH2 0xC8 JUMP JUMPDEST PUSH1 0x40 MLOAD PUSH2 0x63 SWAP2 SWAP1 PUSH2 0x4F2 JUMP JUMPDEST PUSH1 0x40 MLOAD DUP1 SWAP2 SUB SWAP1 RETURN JUMPDEST CALLVALUE DUP1 ISZERO PUSH2 0x77 JUMPI PUSH0 PUSH0 REVERT JUMPDEST POP PUSH2 0x80 PUSH2 0xEC JUMP JUMPDEST STOP JUMPDEST PUSH2 0x8A PUSH2 0x32C JUMP JUMPDEST STOP JUMPDEST CALLVALUE DUP1 ISZERO PUSH2 0x97 JUMPI PUSH0 PUSH0 REVERT JUMPDEST POP PUSH2 0xB2 PUSH1 0x4 DUP1 CALLDATASIZE SUB DUP2 ADD SWAP1 PUSH2 0xAD SWAP2 SWAP1 PUSH2 0x542 JUMP JUMPDEST PUSH2 0x3A0 JUMP JUMPDEST PUSH1 0x40 MLOAD PUSH2 0xBF SWAP2 SWAP1 PUSH2 0x4F2 JUMP JUMPDEST PUSH1 0x40 MLOAD DUP1 SWAP2 SUB SWAP1 RETURN JUMPDEST PUSH0 PUSH0 SWAP1 SLOAD SWAP1 PUSH2 0x100 EXP SWAP1 DIV PUSH20 0xFFFFFFFFFFFFFFFFFFFFFFFFFFFFFFFFFFFFFFFF AND DUP2 JUMP JUMPDEST PUSH0 PUSH0 SWAP1 SLOAD SWAP1 PUSH2 0x100 EXP SWAP1 DIV PUSH20 0xFFFFFFFFFFFFFFFFFFFFFFFFFFFFFFFFFFFFFFFF AND PUSH20 0xFFFFFFFFFFFFFFFFFFFFFFFFFFFFFFFFFFFFFFFF AND CALLER PUSH20 0xFFFFFFFFFFFFFFFFFFFFFFFFFFFFFFFFFFFFFFFF AND EQ PUSH2 0x17A JUMPI PUSH1 0x40 MLOAD PUSH32 0x8C379A000000000000000000000000000000000000000000000000000000000 DUP2 MSTORE PUSH1 0x4 ADD PUSH2 0x171 SWAP1 PUSH2 0x5C7 JUMP JUMPDEST PUSH1 0x40 MLOAD DUP1 SWAP2 SUB SWAP1 REVERT JUMPDEST PUSH0 PUSH1 0x1 DUP1 SLOAD SWAP1 POP GT PUSH2 0x1C1 JUMPI PUSH1 0x40 MLOAD PUSH32 0x8C379A000000000000000000000000000000000000000000000000000000000 DUP2 MSTORE PUSH1 0x4 ADD PUSH2 0x1B8 SWAP1 PUSH2 0x62F JUMP JUMPDEST PUSH1 0x40 MLOAD DUP1 SWAP2 SUB SWAP1 REVERT JUMPDEST PUSH0 PUSH1 0x1 DUP1 SLOAD SWAP1 POP PUSH2 0x1D0 PUSH2 0x3DB JUMP JUMPDEST PUSH2 0x1DA SWAP2 SWAP1 PUSH2 0x67A JUMP JUMPDEST SWAP1 POP PUSH0 PUSH1 0x1 DUP3 DUP2 SLOAD DUP2 LT PUSH2 0x1F1 JUMPI PUSH2 0x1F0 PUSH2 0x6AA JUMP JUMPDEST JUMPDEST SWAP1 PUSH0 MSTORE PUSH1 0x20 PUSH0 KECCAK256 ADD PUSH0 SWAP1 SLOAD SWAP1 PUSH2 0x100 EXP SWAP1 DIV PUSH20 0xFFFFFFFFFFFFFFFFFFFFFFFFFFFFFFFFFFFFFFFF AND SWAP1 POP PUSH0 SELFBALANCE SWAP1 POP PUSH0 DUP3 PUSH20 0xFFFFFFFFFFFFFFFFFFFFFFFFFFFFFFFFFFFFFFFF AND DUP3 PUSH1 0x40 MLOAD PUSH2 0x244 SWAP1 PUSH2 0x704 JUMP JUMPDEST PUSH0 PUSH1 0x40 MLOAD DUP1 DUP4 SUB DUP2 DUP6 DUP8 GAS CALL SWAP3 POP POP POP RETURNDATASIZE DUP1 PUSH0 DUP2 EQ PUSH2 0x27E JUMPI PUSH1 0x40 MLOAD SWAP2 POP PUSH1 0x1F NOT PUSH1 0x3F RETURNDATASIZE ADD AND DUP3 ADD PUSH1 0x40 MSTORE RETURNDATASIZE DUP3 MSTORE RETURNDATASIZE PUSH0 PUSH1 0x20 DUP5 ADD RETURNDATACOPY PUSH2 0x283 JUMP JUMPDEST PUSH1 0x60 SWAP2 POP JUMPDEST POP POP SWAP1 POP DUP1 PUSH2 0x2C7 JUMPI PUSH1 0x40 MLOAD PUSH32 0x8C379A000000000000000000000000000000000000000000000000000000000 DUP2 MSTORE PUSH1 0x4 ADD PUSH2 0x2BE SWAP1 PUSH2 0x762 JUMP JUMPDEST PUSH1 0x40 MLOAD DUP1 SWAP2 SUB SWAP1 REVERT JUMPDEST PUSH0 PUSH8 0xFFFFFFFFFFFFFFFF DUP2 GT ISZERO PUSH2 0x2E1 JUMPI PUSH2 0x2E0 PUSH2 0x780 JUMP JUMPDEST JUMPDEST PUSH1 0x40 MLOAD SWAP1 DUP1 DUP3 MSTORE DUP1 PUSH1 0x20 MUL PUSH1 0x20 ADD DUP3 ADD PUSH1 0x40 MSTORE DUP1 ISZERO PUSH2 0x30F JUMPI DUP2 PUSH1 0x20 ADD PUSH1 0x20 DUP3 MUL DUP1 CALLDATASIZE DUP4 CALLDATACOPY DUP1 DUP3 ADD SWAP2 POP POP SWAP1 POP JUMPDEST POP PUSH1 0x1 SWAP1 DUP1 MLOAD SWAP1 PUSH1 0x20 ADD SWAP1 PUSH2 0x325 SWAP3 SWAP2 SWAP1 PUSH2 0x411 JUMP JUMPDEST POP POP POP POP POP JUMP JUMPDEST PUSH7 0x2386F26FC10000 CALLVALUE GT PUSH2 0x33E JUMPI PUSH0 PUSH0 REVERT JUMPDEST PUSH1 0x1 CALLER SWAP1 DUP1 PUSH1 0x1 DUP2 SLOAD ADD DUP1 DUP3 SSTORE DUP1 SWAP2 POP POP PUSH1 0x1 SWAP1 SUB SWAP1 PUSH0 MSTORE PUSH1 0x20 PUSH0 KECCAK256 ADD PUSH0 SWAP1 SWAP2 SWAP1 SWAP2 SWAP1 SWAP2 PUSH2 0x100 EXP DUP2 SLOAD DUP2 PUSH20 0xFFFFFFFFFFFFFFFFFFFFFFFFFFFFFFFFFFFFFFFF MUL NOT AND SWAP1 DUP4 PUSH20 0xFFFFFFFFFFFFFFFFFFFFFFFFFFFFFFFFFFFFFFFF AND MUL OR SWAP1 SSTORE POP JUMP JUMPDEST PUSH1 0x1 DUP2 DUP2 SLOAD DUP2 LT PUSH2 0x3AF JUMPI PUSH0 DUP1 REVERT JUMPDEST SWAP1 PUSH0 MSTORE PUSH1 0x20 PUSH0 KECCAK256 ADD PUSH0 SWAP2 POP SLOAD SWAP1 PUSH2 0x100 EXP SWAP1 DIV PUSH20 0xFFFFFFFFFFFFFFFFFFFFFFFFFFFFFFFFFFFFFFFF AND DUP2 JUMP JUMPDEST PUSH0 PREVRANDAO TIMESTAMP PUSH1 0x1 CALLER PUSH1 0x40 MLOAD PUSH1 0x20 ADD PUSH2 0x3F4 SWAP5 SWAP4 SWAP3 SWAP2 SWAP1 PUSH2 0x922 JUMP JUMPDEST PUSH1 0x40 MLOAD PUSH1 0x20 DUP2 DUP4 SUB SUB DUP2 MSTORE SWAP1 PUSH1 0x40 MSTORE DUP1 MLOAD SWAP1 PUSH1 0x20 ADD KECCAK256 PUSH0 SHR SWAP1 POP SWAP1 JUMP JUMPDEST DUP3 DUP1 SLOAD DUP3 DUP3 SSTORE SWAP1 PUSH0 MSTORE PUSH1 0x20 PUSH0 KECCAK256 SWAP1 DUP2 ADD SWAP3 DUP3 ISZERO PUSH2 0x487 JUMPI SWAP2 PUSH1 0x20 MUL DUP3 ADD JUMPDEST DUP3 DUP2 GT ISZERO PUSH2 0x486 JUMPI DUP3 MLOAD DUP3 PUSH0 PUSH2 0x100 EXP DUP2 SLOAD DUP2 PUSH20 0xFFFFFFFFFFFFFFFFFFFFFFFFFFFFFFFFFFFFFFFF MUL NOT AND SWAP1 DUP4 PUSH20 0xFFFFFFFFFFFFFFFFFFFFFFFFFFFFFFFFFFFFFFFF AND MUL OR SWAP1 SSTORE POP SWAP2 PUSH1 0x20 ADD SWAP2 SWAP1 PUSH1 0x1 ADD SWAP1 PUSH2 0x42F JUMP JUMPDEST JUMPDEST POP SWAP1 POP PUSH2 0x494 SWAP2 SWAP1 PUSH2 0x498 JUMP JUMPDEST POP SWAP1 JUMP JUMPDEST JUMPDEST DUP1 DUP3 GT ISZERO PUSH2 0x4AF JUMPI PUSH0 DUP2 PUSH0 SWAP1 SSTORE POP PUSH1 0x1 ADD PUSH2 0x499 JUMP JUMPDEST POP SWAP1 JUMP JUMPDEST PUSH0 PUSH20 0xFFFFFFFFFFFFFFFFFFFFFFFFFFFFFFFFFFFFFFFF DUP3 AND SWAP1 POP SWAP2 SWAP1 POP JUMP JUMPDEST PUSH0 PUSH2 0x4DC DUP3 PUSH2 0x4B3 JUMP JUMPDEST SWAP1 POP SWAP2 SWAP1 POP JUMP JUMPDEST PUSH2 0x4EC DUP2 PUSH2 0x4D2 JUMP JUMPDEST DUP3 MSTORE POP POP JUMP JUMPDEST PUSH0 PUSH1 0x20 DUP3 ADD SWAP1 POP PUSH2 0x505 PUSH0 DUP4 ADD DUP5 PUSH2 0x4E3 JUMP JUMPDEST SWAP3 SWAP2 POP POP JUMP JUMPDEST PUSH0 PUSH0 REVERT JUMPDEST PUSH0 DUP2 SWAP1 POP SWAP2 SWAP1 POP JUMP JUMPDEST PUSH2 0x521 DUP2 PUSH2 0x50F JUMP JUMPDEST DUP2 EQ PUSH2 0x52B JUMPI PUSH0 PUSH0 REVERT JUMPDEST POP JUMP JUMPDEST PUSH0 DUP2 CALLDATALOAD SWAP1 POP PUSH2 0x53C DUP2 PUSH2 0x518 JUMP JUMPDEST SWAP3 SWAP2 POP POP JUMP JUMPDEST PUSH0 PUSH1 0x20 DUP3 DUP5 SUB SLT ISZERO PUSH2 0x557 JUMPI PUSH2 0x556 PUSH2 0x50B JUMP JUMPDEST JUMPDEST PUSH0 PUSH2 0x564 DUP5 DUP3 DUP6 ADD PUSH2 0x52E JUMP JUMPDEST SWAP2 POP POP SWAP3 SWAP2 POP POP JUMP JUMPDEST PUSH0 DUP3 DUP3 MSTORE PUSH1 0x20 DUP3 ADD SWAP1 POP SWAP3 SWAP2 POP POP JUMP JUMPDEST PUSH32 0x4F6E6C79206D616E616765722063616E2063616C6C2074686973000000000000 PUSH0 DUP3 ADD MSTORE POP JUMP JUMPDEST PUSH0 PUSH2 0x5B1 PUSH1 0x1A DUP4 PUSH2 0x56D JUMP JUMPDEST SWAP2 POP PUSH2 0x5BC DUP3 PUSH2 0x57D JUMP JUMPDEST PUSH1 0x20 DUP3 ADD SWAP1 POP SWAP2 SWAP1 POP JUMP JUMPDEST PUSH0 PUSH1 0x20 DUP3 ADD SWAP1 POP DUP2 DUP2 SUB PUSH0 DUP4 ADD MSTORE PUSH2 0x5DE DUP2 PUSH2 0x5A5 JUMP JUMPDEST SWAP1 POP SWAP2 SWAP1 POP JUMP JUMPDEST PUSH32 0x4E6F20706C617965727320696E20746865206C6F747465727900000000000000 PUSH0 DUP3 ADD MSTORE POP JUMP JUMPDEST PUSH0 PUSH2 0x619 PUSH1 0x19 DUP4 PUSH2 0x56D JUMP JUMPDEST SWAP2 POP PUSH2 0x624 DUP3 PUSH2 0x5E5 JUMP JUMPDEST PUSH1 0x20 DUP3 ADD SWAP1 POP SWAP2 SWAP1 POP JUMP JUMPDEST PUSH0 PUSH1 0x20 DUP3 ADD SWAP1 POP DUP2 DUP2 SUB PUSH0 DUP4 ADD MSTORE PUSH2 0x646 DUP2 PUSH2 0x60D JUMP JUMPDEST SWAP1 POP SWAP2 SWAP1 POP JUMP JUMPDEST PUSH32 0x4E487B7100000000000000000000000000000000000000000000000000000000 PUSH0 MSTORE PUSH1 0x12 PUSH1 0x4 MSTORE PUSH1 0x24 PUSH0 REVERT JUMPDEST PUSH0 PUSH2 0x684 DUP3 PUSH2 0x50F JUMP JUMPDEST SWAP2 POP PUSH2 0x68F DUP4 PUSH2 0x50F JUMP JUMPDEST SWAP3 POP DUP3 PUSH2 0x69F JUMPI PUSH2 0x69E PUSH2 0x64D JUMP JUMPDEST JUMPDEST DUP3 DUP3 MOD SWAP1 POP SWAP3 SWAP2 POP POP JUMP JUMPDEST PUSH32 0x4E487B7100000000000000000000000000000000000000000000000000000000 PUSH0 MSTORE PUSH1 0x32 PUSH1 0x4 MSTORE PUSH1 0x24 PUSH0 REVERT JUMPDEST PUSH0 DUP2 SWAP1 POP SWAP3 SWAP2 POP POP JUMP JUMPDEST POP JUMP JUMPDEST PUSH0 PUSH2 0x6EF PUSH0 DUP4 PUSH2 0x6D7 JUMP JUMPDEST SWAP2 POP PUSH2 0x6FA DUP3 PUSH2 0x6E1 JUMP JUMPDEST PUSH0 DUP3 ADD SWAP1 POP SWAP2 SWAP1 POP JUMP JUMPDEST PUSH0 PUSH2 0x70E DUP3 PUSH2 0x6E4 JUMP JUMPDEST SWAP2 POP DUP2 SWAP1 POP SWAP2 SWAP1 POP JUMP JUMPDEST PUSH32 0x5472616E73666572206661696C65640000000000000000000000000000000000 PUSH0 DUP3 ADD MSTORE POP JUMP JUMPDEST PUSH0 PUSH2 0x74C PUSH1 0xF DUP4 PUSH2 0x56D JUMP JUMPDEST SWAP2 POP PUSH2 0x757 DUP3 PUSH2 0x718 JUMP JUMPDEST PUSH1 0x20 DUP3 ADD SWAP1 POP SWAP2 SWAP1 POP JUMP JUMPDEST PUSH0 PUSH1 0x20 DUP3 ADD SWAP1 POP DUP2 DUP2 SUB PUSH0 DUP4 ADD MSTORE PUSH2 0x779 DUP2 PUSH2 0x740 JUMP JUMPDEST SWAP1 POP SWAP2 SWAP1 POP JUMP JUMPDEST PUSH32 0x4E487B7100000000000000000000000000000000000000000000000000000000 PUSH0 MSTORE PUSH1 0x41 PUSH1 0x4 MSTORE PUSH1 0x24 PUSH0 REVERT JUMPDEST PUSH0 DUP2 SWAP1 POP SWAP2 SWAP1 POP JUMP JUMPDEST PUSH2 0x7C7 PUSH2 0x7C2 DUP3 PUSH2 0x50F JUMP JUMPDEST PUSH2 0x7AD JUMP JUMPDEST DUP3 MSTORE POP POP JUMP JUMPDEST PUSH0 DUP2 SLOAD SWAP1 POP SWAP2 SWAP1 POP JUMP JUMPDEST PUSH0 DUP2 SWAP1 POP SWAP3 SWAP2 POP POP JUMP JUMPDEST PUSH0 DUP2 SWAP1 POP DUP2 PUSH0 MSTORE PUSH1 0x20 PUSH0 KECCAK256 SWAP1 POP SWAP2 SWAP1 POP JUMP JUMPDEST PUSH2 0x7FC DUP2 PUSH2 0x4D2 JUMP JUMPDEST DUP3 MSTORE POP POP JUMP JUMPDEST PUSH0 PUSH2 0x80D DUP4 DUP4 PUSH2 0x7F3 JUMP JUMPDEST PUSH1 0x20 DUP4 ADD SWAP1 POP SWAP3 SWAP2 POP POP JUMP JUMPDEST PUSH0 DUP2 PUSH0 SHR SWAP1 POP SWAP2 SWAP1 POP JUMP JUMPDEST PUSH0 PUSH20 0xFFFFFFFFFFFFFFFFFFFFFFFFFFFFFFFFFFFFFFFF DUP3 AND SWAP1 POP SWAP2 SWAP1 POP JUMP JUMPDEST PUSH0 PUSH2 0x855 PUSH2 0x850 DUP4 PUSH2 0x819 JUMP JUMPDEST PUSH2 0x824 JUMP JUMPDEST SWAP1 POP SWAP2 SWAP1 POP JUMP JUMPDEST PUSH0 PUSH2 0x867 DUP3 SLOAD PUSH2 0x843 JUMP JUMPDEST SWAP1 POP SWAP2 SWAP1 POP JUMP JUMPDEST PUSH0 PUSH1 0x1 DUP3 ADD SWAP1 POP SWAP2 SWAP1 POP JUMP JUMPDEST PUSH0 PUSH2 0x884 DUP3 PUSH2 0x7CD JUMP JUMPDEST PUSH2 0x88E DUP2 DUP6 PUSH2 0x7D7 JUMP JUMPDEST SWAP4 POP PUSH2 0x899 DUP4 PUSH2 0x7E1 JUMP JUMPDEST DUP1 PUSH0 JUMPDEST DUP4 DUP2 LT ISZERO PUSH2 0x8D0 JUMPI PUSH2 0x8AD DUP3 PUSH2 0x85C JUMP JUMPDEST PUSH2 0x8B7 DUP9 DUP3 PUSH2 0x802 JUMP JUMPDEST SWAP8 POP PUSH2 0x8C2 DUP4 PUSH2 0x86E JUMP JUMPDEST SWAP3 POP POP PUSH1 0x1 DUP2 ADD SWAP1 POP PUSH2 0x89C JUMP JUMPDEST POP DUP6 SWAP4 POP POP POP POP SWAP3 SWAP2 POP POP JUMP JUMPDEST PUSH0 DUP2 PUSH1 0x60 SHL SWAP1 POP SWAP2 SWAP1 POP JUMP JUMPDEST PUSH0 PUSH2 0x8F3 DUP3 PUSH2 0x8DD JUMP JUMPDEST SWAP1 POP SWAP2 SWAP1 POP JUMP JUMPDEST PUSH0 PUSH2 0x904 DUP3 PUSH2 0x8E9 JUMP JUMPDEST SWAP1 POP SWAP2 SWAP1 POP JUMP JUMPDEST PUSH2 0x91C PUSH2 0x917 DUP3 PUSH2 0x4D2 JUMP JUMPDEST PUSH2 0x8FA JUMP JUMPDEST DUP3 MSTORE POP POP JUMP JUMPDEST PUSH0 PUSH2 0x92D DUP3 DUP8 PUSH2 0x7B6 JUMP JUMPDEST PUSH1 0x20 DUP3 ADD SWAP2 POP PUSH2 0x93D DUP3 DUP7 PUSH2 0x7B6 JUMP JUMPDEST PUSH1 0x20 DUP3 ADD SWAP2 POP PUSH2 0x94D DUP3 DUP6 PUSH2 0x87A JUMP JUMPDEST SWAP2 POP PUSH2 0x959 DUP3 DUP5 PUSH2 0x90B JUMP JUMPDEST PUSH1 0x14 DUP3 ADD SWAP2 POP DUP2 SWAP1 POP SWAP6 SWAP5 POP POP POP POP POP JUMP INVALID LOG2 PUSH5 0x6970667358 0x22 SLT KECCAK256 ORIGIN 0x27 SMOD SWAP12 0xCF PUSH4 0x635E40C7 SWAP11 SUB DELEGATECALL SUB KECCAK256 0x2B 0xAD SHL INVALID SHR 0xB9 0x24 ADDRESS PUSH3 0x46C956 LOG4 JUMPDEST PUSH11 0x820A64736F6C634300081C STOP CALLER "
				},
				"gasEstimates": {
					"creation": {
						"codeDepositCost": "493000",
						"executionCost": "24792",
						"totalCost": "517792"
					},
					"external": {
						"enter()": "48738",
						"manager()": "2485",
						"pickWinner()": "infinite",
						"players(uint256)": "4988"
					},
					"internal": {
						"random()": "infinite"
					}
				},
				"methodIdentifiers": {
					"enter()": "e97dcb62",
					"manager()": "481c6a75",
					"pickWinner()": "5d495aea",
					"players(uint256)": "f71d96cb"
				}
			},
			"storageLayout": {
				"storage": [
					{
						"astId": 3,
						"contract": "contracts/Lottery.sol:Lottery",
						"label": "manager",
						"offset": 0,
						"slot": "0",
						"type": "t_address"
					},
					{
						"astId": 6,
						"contract": "contracts/Lottery.sol:Lottery",
						"label": "players",
						"offset": 0,
						"slot": "1",
						"type": "t_array(t_address)dyn_storage"
					}
				],
				"types": {
					"t_address": {
						"encoding": "inplace",
						"label": "address",
						"numberOfBytes": "20"
					},
					"t_array(t_address)dyn_storage": {
						"base": "t_address",
						"encoding": "dynamic_array",
						"label": "address[]",
						"numberOfBytes": "32"
					}
				}
			},
			"userdoc": {
				"kind": "user",
				"methods": {},
				"version": 1
			}
		}
	}
}